:100000000C942A000C9434000C9434000C943400AA
:100010000C9434000C9434000C9434000C94340090
:100020000C9434000C9434000C9434000C94340080
:100030000C9434000C9434000C9434000C94340070
:100040000C9434000C9434000C9434000C94340060
:100050000C94340011241FBECFE5D8E0DEBFCDBF25
:100060000E94E5010C9410020C94000091B5987F59
:1000700091BD91B5982B91BD089581B5886081BDE2
:10008000089581B5886181BD11BC08955D9BFECF47
:100090008CB908955F9BFECF8CB10895529886E885
:1000A00080BD83E390E09AB989B9549A539A089530
:1000B0008FB580688FBD8FB58F7B8FBD8FB58E7FDD
:1000C0008FBD8FB582608FBD8EB588608EBD8EB5B9
:1000D00080618EBD8EB58E7F8EBD8EB582608EBDE9
:1000E0008EB58B7F8EBD08958CBF089597BD86BD5C
:1000F00008959BBD8ABD08958FB780688FBF08950E
:100100008FB78F778FBF089585B7826085BF85B71A
:100110008E7F85BF8BB780648BBF08953F983E9AD2
:100120003D9A329A319A379A089597B1907797B954
:1001300097B1982B97B9369A349BFECF349885B1F6
:100140000895813029F1813038F0823009F43CC0C3
:10015000833009F06EC053C0442361F42AB381E0B8
:1001600090E002C0880F991F6A95E2F7809582237C
:100170008ABB0895413009F05CC02AB381E090E069
:1001800002C0880F991F6A95E2F7282B2ABB0895B1
:10019000442361F427B381E090E002C0880F991FE7
:1001A0006A95E2F78095822387BB0895413009F074
:1001B00040C027B381E090E002C0880F991F6A9584
:1001C000E2F7282B27BB0895442361F424B381E090
:1001D00090E002C0880F991F6A95E2F7809582230C
:1001E00084BB0895413029F524B381E090E002C03A
:1001F000880F991F6A95E2F7282B24BB08954423A2
:1002000061F421B381E090E002C0880F991F6A95E4
:10021000E2F78095822381BB0895413051F421B3E8
:1002200081E090E002C0880F991F6A95E2F7282BC1
:1002300021BB0895813029F1813038F0823009F4F2
:100240003CC0833009F06EC053C0442361F42BB32B
:1002500081E090E002C0880F991F6A95E2F78095CF
:1002600082238BBB0895413009F05CC02BB381E041
:1002700090E002C0880F991F6A95E2F7282B2BBBEC
:100280000895442361F428B381E090E002C0880F10
:10029000991F6A95E2F78095822388BB08954130C3
:1002A00009F040C028B381E090E002C0880F991F98
:1002B0006A95E2F7282B28BB0895442361F425B3FF
:1002C00081E090E002C0880F991F6A95E2F780955F
:1002D000822385BB0895413029F525B381E090E064
:1002E00002C0880F991F6A95E2F7282B25BB089555
:1002F000442361F422B381E090E002C0880F991F8B
:100300006A95E2F78095822382BB0895413051F4CB
:1003100022B381E090E002C0880F991F6A95E2F74E
:10032000282B22BB0895813049F0813028F082309B
:1003300039F0833041F406C06ABB089567BB089565
:1003400064BB089561BB0895813049F0813028F085
:10035000823039F0833041F406C06BBB089568BB2E
:10036000089565BB089562BB0895813049F08130DE
:1003700028F0823039F08330B1F40DC089B303C066
:1003800086B301C083B390E002C0959587956A95C6
:10039000E2F78170089580B390E002C0959587954B
:1003A0006A95E2F781700895813049F0813028F034
:1003B000823039F0833041F406C089B3089586B3A2
:1003C000089583B3089580B3089583E060E040E02A
:1003D0000E94A10083E061E041E00E94A10080E072
:1003E00060E041E00E94A10080E061E041E00E9405
:1003F000A1000E944E0083E60E9446000E944A002F
:10040000813621F480E060E041E007C00E944A00AC
:100410008236A1F780E060E040E00E941A01EECF52
:04042000F894FFCF7E
:00000001FF
